{
  "_format": "hh-sol-artifact-1",
  "contractName": "LandRegistration",
  "sourceName": "contracts/LandRegistration.sol",
  "abi": [
    {
      "inputs": [
        {
          "internalType": "address",
          "name": "_account",
          "type": "address"
        }
      ],
      "stateMutability": "nonpayable",
      "type": "constructor"
    },
    {
      "anonymous": false,
      "inputs": [
        {
          "indexed": true,
          "internalType": "address",
          "name": "_buyer",
          "type": "address"
        },
        {
          "indexed": true,
          "internalType": "address",
          "name": "_seller",
          "type": "address"
        },
        {
          "indexed": true,
          "internalType": "uint256",
          "name": "_landId",
          "type": "uint256"
        }
      ],
      "name": "PurchaseLand",
      "type": "event"
    },
    {
      "anonymous": false,
      "inputs": [
        {
          "indexed": true,
          "internalType": "address",
          "name": "_addr1",
          "type": "address"
        },
        {
          "indexed": true,
          "internalType": "uint256",
          "name": "_landId",
          "type": "uint256"
        },
        {
          "indexed": true,
          "internalType": "uint256",
          "name": "_priceSelling",
          "type": "uint256"
        }
      ],
      "name": "RegisterLand",
      "type": "event"
    },
    {
      "anonymous": false,
      "inputs": [
        {
          "indexed": true,
          "internalType": "address",
          "name": "_withdrawer",
          "type": "address"
        },
        {
          "indexed": true,
          "internalType": "uint256",
          "name": "_amount",
          "type": "uint256"
        }
      ],
      "name": "Withdraw",
      "type": "event"
    },
    {
      "inputs": [
        {
          "internalType": "uint256",
          "name": "_lanId",
          "type": "uint256"
        }
      ],
      "name": "buyer",
      "outputs": [
        {
          "components": [
            {
              "internalType": "string",
              "name": "state",
              "type": "string"
            },
            {
              "internalType": "string",
              "name": "lga",
              "type": "string"
            },
            {
              "internalType": "string",
              "name": "location",
              "type": "string"
            },
            {
              "internalType": "uint256",
              "name": "plotNumber",
              "type": "uint256"
            },
            {
              "internalType": "address",
              "name": "currentOwner",
              "type": "address"
            },
            {
              "internalType": "uint256",
              "name": "priceSelling",
              "type": "uint256"
            },
            {
              "internalType": "bool",
              "name": "isAvailable",
              "type": "bool"
            },
            {
              "internalType": "address",
              "name": "requester",
              "type": "address"
            },
            {
              "internalType": "enum LandRegistration.ReqStatus",
              "name": "reqStatus",
              "type": "uint8"
            }
          ],
          "internalType": "struct LandRegistration.LandDetails",
          "name": "",
          "type": "tuple"
        }
      ],
      "stateMutability": "view",
      "type": "function"
    },
    {
      "inputs": [
        {
          "internalType": "address",
          "name": "_addr",
          "type": "address"
        }
      ],
      "name": "checkId",
      "outputs": [
        {
          "internalType": "uint256",
          "name": "",
          "type": "uint256"
        }
      ],
      "stateMutability": "view",
      "type": "function"
    },
    {
      "inputs": [
        {
          "internalType": "uint256",
          "name": "_id",
          "type": "uint256"
        },
        {
          "internalType": "address",
          "name": "_addr",
          "type": "address"
        }
      ],
      "name": "findIndex",
      "outputs": [
        {
          "internalType": "uint256",
          "name": "",
          "type": "uint256"
        }
      ],
      "stateMutability": "view",
      "type": "function"
    },
    {
      "inputs": [
        {
          "internalType": "uint256",
          "name": "_lanId",
          "type": "uint256"
        }
      ],
      "name": "makeAvailable",
      "outputs": [],
      "stateMutability": "nonpayable",
      "type": "function"
    },
    {
      "inputs": [
        {
          "internalType": "uint256",
          "name": "_lanId",
          "type": "uint256"
        }
      ],
      "name": "owner",
      "outputs": [
        {
          "internalType": "string",
          "name": "",
          "type": "string"
        },
        {
          "internalType": "string",
          "name": "",
          "type": "string"
        },
        {
          "internalType": "string",
          "name": "",
          "type": "string"
        },
        {
          "internalType": "uint256",
          "name": "",
          "type": "uint256"
        },
        {
          "internalType": "bool",
          "name": "",
          "type": "bool"
        },
        {
          "internalType": "address",
          "name": "",
          "type": "address"
        },
        {
          "internalType": "enum LandRegistration.ReqStatus",
          "name": "",
          "type": "uint8"
        }
      ],
      "stateMutability": "view",
      "type": "function"
    },
    {
      "inputs": [
        {
          "internalType": "uint256",
          "name": "_lanId",
          "type": "uint256"
        },
        {
          "internalType": "enum LandRegistration.ReqStatus",
          "name": "status",
          "type": "uint8"
        }
      ],
      "name": "processRequest",
      "outputs": [],
      "stateMutability": "nonpayable",
      "type": "function"
    },
    {
      "inputs": [
        {
          "internalType": "uint256",
          "name": "_lanId",
          "type": "uint256"
        }
      ],
      "name": "purchaseLand",
      "outputs": [],
      "stateMutability": "payable",
      "type": "function"
    },
    {
      "inputs": [
        {
          "internalType": "string",
          "name": "_state",
          "type": "string"
        },
        {
          "internalType": "string",
          "name": "_lga",
          "type": "string"
        },
        {
          "internalType": "string",
          "name": "_location",
          "type": "string"
        },
        {
          "internalType": "uint256",
          "name": "_plotNumber",
          "type": "uint256"
        },
        {
          "internalType": "uint256",
          "name": "_priceSelling",
          "type": "uint256"
        },
        {
          "internalType": "bool",
          "name": "_isAvailable",
          "type": "bool"
        }
      ],
      "name": "register",
      "outputs": [
        {
          "internalType": "uint256",
          "name": "",
          "type": "uint256"
        }
      ],
      "stateMutability": "nonpayable",
      "type": "function"
    },
    {
      "inputs": [
        {
          "internalType": "uint256",
          "name": "_lanId",
          "type": "uint256"
        }
      ],
      "name": "requestToLandOwner",
      "outputs": [],
      "stateMutability": "nonpayable",
      "type": "function"
    },
    {
      "inputs": [],
      "name": "viewAssets",
      "outputs": [
        {
          "internalType": "uint256[]",
          "name": "",
          "type": "uint256[]"
        }
      ],
      "stateMutability": "view",
      "type": "function"
    },
    {
      "inputs": [
        {
          "internalType": "address",
          "name": "_addr",
          "type": "address"
        }
      ],
      "name": "viewBalance",
      "outputs": [
        {
          "internalType": "uint256",
          "name": "",
          "type": "uint256"
        }
      ],
      "stateMutability": "view",
      "type": "function"
    },
    {
      "inputs": [
        {
          "internalType": "uint256",
          "name": "_lanId",
          "type": "uint256"
        }
      ],
      "name": "viewRequest",
      "outputs": [
        {
          "internalType": "address",
          "name": "",
          "type": "address"
        }
      ],
      "stateMutability": "view",
      "type": "function"
    },
    {
      "inputs": [],
      "name": "withdraw",
      "outputs": [
        {
          "internalType": "bool",
          "name": "",
          "type": "bool"
        }
      ],
      "stateMutability": "nonpayable",
      "type": "function"
    }
  ],
  "bytecode": "0x60806040523480156200001157600080fd5b5060405162002dfd38038062002dfd833981810160405281019062000037919062000129565b33600260006101000a81548173ffffffffffffffffffffffffffffffffffffffff021916908373ffffffffffffffffffffffffffffffffffffffff160217905550806000806101000a81548173ffffffffffffffffffffffffffffffffffffffff021916908373ffffffffffffffffffffffffffffffffffffffff160217905550506200015b565b600080fd5b600073ffffffffffffffffffffffffffffffffffffffff82169050919050565b6000620000f182620000c4565b9050919050565b6200010381620000e4565b81146200010f57600080fd5b50565b6000815190506200012381620000f8565b92915050565b600060208284031215620001425762000141620000bf565b5b6000620001528482850162000112565b91505092915050565b612c92806200016b6000396000f3fe6080604052600436106100c25760003560e01c80637d1bfeb61161007f578063baa39e0511610059578063baa39e0514610299578063c1a13d1a146102c2578063c2719d95146102ff578063fdb10f501461033c576100c2565b80637d1bfeb6146102115780638009d5d71461023a578063a123c33e14610256576100c2565b80630d2d5dca146100c757806314085c9f146100f2578063240bb17b1461012f57806326e852501461016c5780633ccfd60b146101a95780634dd4acaf146101d4575b600080fd5b3480156100d357600080fd5b506100dc610365565b6040516100e99190611dbe565b60405180910390f35b3480156100fe57600080fd5b5061011960048036038101906101149190611e7e565b6103fd565b6040516101269190611ecd565b60405180910390f35b34801561013b57600080fd5b5061015660048036038101906101519190611ee8565b6104df565b6040516101639190611ecd565b60405180910390f35b34801561017857600080fd5b50610193600480360381019061018e9190611f15565b610592565b6040516101a09190611f51565b60405180910390f35b3480156101b557600080fd5b506101be6105d2565b6040516101cb9190611f87565b60405180910390f35b3480156101e057600080fd5b506101fb60048036038101906101f69190611f15565b6107e9565b60405161020891906121a3565b60405180910390f35b34801561021d57600080fd5b5061023860048036038101906102339190611f15565b610ae3565b005b610254600480360381019061024f9190611f15565b610cb0565b005b34801561026257600080fd5b5061027d60048036038101906102789190611f15565b61119c565b604051610290979695949392919061221e565b60405180910390f35b3480156102a557600080fd5b506102c060048036038101906102bb9190611f15565b61143c565b005b3480156102ce57600080fd5b506102e960048036038101906102e49190611ee8565b611511565b6040516102f69190611ecd565b60405180910390f35b34801561030b57600080fd5b5061032660048036038101906103219190612403565b61155a565b6040516103339190611ecd565b60405180910390f35b34801561034857600080fd5b50610363600480360381019061035e9190612509565b6117f3565b005b6060600460003373ffffffffffffffffffffffffffffffffffffffff1673ffffffffffffffffffffffffffffffffffffffff1681526020019081526020016000206000018054806020026020016040519081016040528092919081815260200182805480156103f357602002820191906000526020600020905b8154815260200190600101908083116103df575b5050505050905090565b600080600090505b600460008473ffffffffffffffffffffffffffffffffffffffff1673ffffffffffffffffffffffffffffffffffffffff168152602001908152602001600020600001805490508110156104d45783600460008573ffffffffffffffffffffffffffffffffffffffff1673ffffffffffffffffffffffffffffffffffffffff16815260200190815260200160002060000182815481106104a7576104a6612549565b5b906000526020600020015414156104c157809150506104d9565b80806104cc906125a7565b915050610405565b809150505b92915050565b60008060009054906101000a900473ffffffffffffffffffffffffffffffffffffffff1673ffffffffffffffffffffffffffffffffffffffff1663240bb17b836040518263ffffffff1660e01b815260040161053b9190611f51565b60206040518083038186803b15801561055357600080fd5b505afa158015610567573d6000803e3d6000fd5b505050506040513d601f19601f8201168201806040525081019061058b9190612605565b9050919050565b60006001600083815260200190815260200160002060060160019054906101000a900473ffffffffffffffffffffffffffffffffffffffff169050919050565b600080600360003373ffffffffffffffffffffffffffffffffffffffff1673ffffffffffffffffffffffffffffffffffffffff168152602001908152602001600020541415610656576040517f08c379a000000000000000000000000000000000000000000000000000000000815260040161064d9061267e565b60405180910390fd5b6000600360003373ffffffffffffffffffffffffffffffffffffffff1673ffffffffffffffffffffffffffffffffffffffff16815260200190815260200160002054905080600360003373ffffffffffffffffffffffffffffffffffffffff1673ffffffffffffffffffffffffffffffffffffffff16815260200190815260200160002060008282546106e9919061269e565b9250508190555060003373ffffffffffffffffffffffffffffffffffffffff168260405161071690612703565b60006040518083038185875af1925050503d8060008114610753576040519150601f19603f3d011682016040523d82523d6000602084013e610758565b606091505b505090508061079c576040517f08c379a000000000000000000000000000000000000000000000000000000000815260040161079390612764565b60405180910390fd5b813373ffffffffffffffffffffffffffffffffffffffff167f884edad9ce6fa2440d8a54cc123490eb96d2768479d49ff9c7366125a942436460405160405180910390a360019250505090565b6107f1611bc7565b6001600083815260200190815260200160002060405180610120016040529081600082018054610820906127b3565b80601f016020809104026020016040519081016040528092919081815260200182805461084c906127b3565b80156108995780601f1061086e57610100808354040283529160200191610899565b820191906000526020600020905b81548152906001019060200180831161087c57829003601f168201915b505050505081526020016001820180546108b2906127b3565b80601f01602080910402602001604051908101604052809291908181526020018280546108de906127b3565b801561092b5780601f106109005761010080835404028352916020019161092b565b820191906000526020600020905b81548152906001019060200180831161090e57829003601f168201915b50505050508152602001600282018054610944906127b3565b80601f0160208091040260200160405190810160405280929190818152602001828054610970906127b3565b80156109bd5780601f10610992576101008083540402835291602001916109bd565b820191906000526020600020905b8154815290600101906020018083116109a057829003601f168201915b50505050508152602001600382015481526020016004820160009054906101000a900473ffffffffffffffffffffffffffffffffffffffff1673ffffffffffffffffffffffffffffffffffffffff1673ffffffffffffffffffffffffffffffffffffffff168152602001600582015481526020016006820160009054906101000a900460ff161515151581526020016006820160019054906101000a900473ffffffffffffffffffffffffffffffffffffffff1673ffffffffffffffffffffffffffffffffffffffff1673ffffffffffffffffffffffffffffffffffffffff1681526020016006820160159054906101000a900460ff166003811115610ac657610ac5612059565b5b6003811115610ad857610ad7612059565b5b815250509050919050565b6001600082815260200190815260200160002060060160009054906101000a900460ff16610b46576040517f08c379a0000000000000000000000000000000000000000000000000000000008152600401610b3d90612831565b60405180910390fd5b3373ffffffffffffffffffffffffffffffffffffffff166001600083815260200190815260200160002060040160009054906101000a900473ffffffffffffffffffffffffffffffffffffffff1673ffffffffffffffffffffffffffffffffffffffff161415610beb576040517f08c379a0000000000000000000000000000000000000000000000000000000008152600401610be29061289d565b60405180910390fd5b336001600083815260200190815260200160002060060160016101000a81548173ffffffffffffffffffffffffffffffffffffffff021916908373ffffffffffffffffffffffffffffffffffffffff16021790555060006001600083815260200190815260200160002060060160006101000a81548160ff021916908315150217905550600180600083815260200190815260200160002060060160156101000a81548160ff02191690836003811115610ca857610ca7612059565b5b021790555050565b600380811115610cc357610cc2612059565b5b6001600083815260200190815260200160002060060160159054906101000a900460ff166003811115610cf957610cf8612059565b5b14610d39576040517f08c379a0000000000000000000000000000000000000000000000000000000008152600401610d309061292f565b60405180910390fd5b6001600082815260200190815260200160002060050154341015610d92576040517f08c379a0000000000000000000000000000000000000000000000000000000008152600401610d89906129c1565b60405180910390fd5b3373ffffffffffffffffffffffffffffffffffffffff166001600083815260200190815260200160002060040160009054906101000a900473ffffffffffffffffffffffffffffffffffffffff1673ffffffffffffffffffffffffffffffffffffffff161415610e37576040517f08c379a0000000000000000000000000000000000000000000000000000000008152600401610e2e90612a53565b60405180910390fd5b60006001600083815260200190815260200160002060040160009054906101000a900473ffffffffffffffffffffffffffffffffffffffff169050610eb26001600084815260200190815260200160002060040160009054906101000a900473ffffffffffffffffffffffffffffffffffffffff168361199c565b60008054906101000a900473ffffffffffffffffffffffffffffffffffffffff1673ffffffffffffffffffffffffffffffffffffffff1663f5537ede6001600085815260200190815260200160002060040160009054906101000a900473ffffffffffffffffffffffffffffffffffffffff1633856040518463ffffffff1660e01b8152600401610f4593929190612a73565b600060405180830381600087803b158015610f5f57600080fd5b505af1158015610f73573d6000803e3d6000fd5b5050505034600360003373ffffffffffffffffffffffffffffffffffffffff1673ffffffffffffffffffffffffffffffffffffffff16815260200190815260200160002081905550336001600084815260200190815260200160002060040160006101000a81548173ffffffffffffffffffffffffffffffffffffffff021916908373ffffffffffffffffffffffffffffffffffffffff16021790555060006001600084815260200190815260200160002060060160006101000a81548160ff02191690831515021790555060006001600084815260200190815260200160002060060160016101000a81548173ffffffffffffffffffffffffffffffffffffffff021916908373ffffffffffffffffffffffffffffffffffffffff16021790555060006001600084815260200190815260200160002060060160156101000a81548160ff021916908360038111156110cf576110ce612059565b5b0217905550600460003373ffffffffffffffffffffffffffffffffffffffff1673ffffffffffffffffffffffffffffffffffffffff168152602001908152602001600020600001829080600181540180825580915050600190039060005260206000200160009091909190915055813373ffffffffffffffffffffffffffffffffffffffff168273ffffffffffffffffffffffffffffffffffffffff167fd58fb63ebe32ebb3659ef3b90f6e03613cef6fbf55e468cfabce675a0a0fbd7e60405160405180910390a45050565b606080606060008060008060016000898152602001908152602001600020600001600160008a8152602001908152602001600020600101600160008b8152602001908152602001600020600201600160008c815260200190815260200160002060030154600160008d815260200190815260200160002060060160009054906101000a900460ff16600160008e815260200190815260200160002060060160019054906101000a900473ffffffffffffffffffffffffffffffffffffffff16600160008f815260200190815260200160002060060160159054906101000a900460ff1686805461128b906127b3565b80601f01602080910402602001604051908101604052809291908181526020018280546112b7906127b3565b80156113045780601f106112d957610100808354040283529160200191611304565b820191906000526020600020905b8154815290600101906020018083116112e757829003601f168201915b50505050509650858054611317906127b3565b80601f0160208091040260200160405190810160405280929190818152602001828054611343906127b3565b80156113905780601f1061136557610100808354040283529160200191611390565b820191906000526020600020905b81548152906001019060200180831161137357829003601f168201915b505050505095508480546113a3906127b3565b80601f01602080910402602001604051908101604052809291908181526020018280546113cf906127b3565b801561141c5780601f106113f15761010080835404028352916020019161141c565b820191906000526020600020905b8154815290600101906020018083116113ff57829003601f168201915b505050505094509650965096509650965096509650919395979092949650565b3373ffffffffffffffffffffffffffffffffffffffff166001600083815260200190815260200160002060040160009054906101000a900473ffffffffffffffffffffffffffffffffffffffff1673ffffffffffffffffffffffffffffffffffffffff16146114e0576040517f08c379a00000000000000000000000000000000000000000000000000000000081526004016114d790612b1c565b60405180910390fd5b600180600083815260200190815260200160002060060160006101000a81548160ff02191690831515021790555050565b6000600360008373ffffffffffffffffffffffffffffffffffffffff1673ffffffffffffffffffffffffffffffffffffffff168152602001908152602001600020549050919050565b60008060009054906101000a900473ffffffffffffffffffffffffffffffffffffffff1673ffffffffffffffffffffffffffffffffffffffff1663b03ad3b233898989896040518663ffffffff1660e01b81526004016115be959493929190612b3c565b600060405180830381600087803b1580156115d857600080fd5b505af11580156115ec573d6000803e3d6000fd5b5050505060006115fb336104df565b905087600160008381526020019081526020016000206000019080519060200190611627929190611c53565b5086600160008381526020019081526020016000206001019080519060200190611652929190611c53565b508560016000838152602001908152602001600020600201908051906020019061167d929190611c53565b50846001600083815260200190815260200160002060030181905550336001600083815260200190815260200160002060040160006101000a81548173ffffffffffffffffffffffffffffffffffffffff021916908373ffffffffffffffffffffffffffffffffffffffff160217905550836001600083815260200190815260200160002060050181905550826001600083815260200190815260200160002060060160006101000a81548160ff021916908315150217905550600460003373ffffffffffffffffffffffffffffffffffffffff1673ffffffffffffffffffffffffffffffffffffffff16815260200190815260200160002060000181908060018154018082558091505060019003906000526020600020016000909190919091505583813373ffffffffffffffffffffffffffffffffffffffff167fd949a7afb9a20e06811e993c91112a284786a3e85a854c32de13892a7ccc82f960405160405180910390a4809150509695505050505050565b3373ffffffffffffffffffffffffffffffffffffffff166001600084815260200190815260200160002060040160009054906101000a900473ffffffffffffffffffffffffffffffffffffffff1673ffffffffffffffffffffffffffffffffffffffff1614611897576040517f08c379a000000000000000000000000000000000000000000000000000000000815260040161188e90612c3c565b60405180910390fd5b806001600084815260200190815260200160002060060160156101000a81548160ff021916908360038111156118d0576118cf612059565b5b0217905550600260038111156118e9576118e8612059565b5b8160038111156118fc576118fb612059565b5b14156119985760006001600084815260200190815260200160002060060160016101000a81548173ffffffffffffffffffffffffffffffffffffffff021916908373ffffffffffffffffffffffffffffffffffffffff16021790555060006001600084815260200190815260200160002060060160156101000a81548160ff0219169083600381111561199257611991612059565b5b02179055505b5050565b60006119a882846103fd565b9050600460008473ffffffffffffffffffffffffffffffffffffffff1673ffffffffffffffffffffffffffffffffffffffff1681526020019081526020016000206000016001600460008673ffffffffffffffffffffffffffffffffffffffff1673ffffffffffffffffffffffffffffffffffffffff16815260200190815260200160002060000180549050611a3e919061269e565b81548110611a4f57611a4e612549565b5b9060005260206000200154600460008573ffffffffffffffffffffffffffffffffffffffff1673ffffffffffffffffffffffffffffffffffffffff1681526020019081526020016000206000018281548110611aae57611aad612549565b5b9060005260206000200181905550600460008473ffffffffffffffffffffffffffffffffffffffff1673ffffffffffffffffffffffffffffffffffffffff1681526020019081526020016000206000016001600460008673ffffffffffffffffffffffffffffffffffffffff1673ffffffffffffffffffffffffffffffffffffffff16815260200190815260200160002060000180549050611b50919061269e565b81548110611b6157611b60612549565b5b90600052602060002001600090556001600460008573ffffffffffffffffffffffffffffffffffffffff1673ffffffffffffffffffffffffffffffffffffffff16815260200190815260200160002060000180549050611bc1919061269e565b50505050565b60405180610120016040528060608152602001606081526020016060815260200160008152602001600073ffffffffffffffffffffffffffffffffffffffff16815260200160008152602001600015158152602001600073ffffffffffffffffffffffffffffffffffffffff16815260200160006003811115611c4d57611c4c612059565b5b81525090565b828054611c5f906127b3565b90600052602060002090601f016020900481019282611c815760008555611cc8565b82601f10611c9a57805160ff1916838001178555611cc8565b82800160010185558215611cc8579182015b82811115611cc7578251825591602001919060010190611cac565b5b509050611cd59190611cd9565b5090565b5b80821115611cf2576000816000905550600101611cda565b5090565b600081519050919050565b600082825260208201905092915050565b6000819050602082019050919050565b6000819050919050565b611d3581611d22565b82525050565b6000611d478383611d2c565b60208301905092915050565b6000602082019050919050565b6000611d6b82611cf6565b611d758185611d01565b9350611d8083611d12565b8060005b83811015611db1578151611d988882611d3b565b9750611da383611d53565b925050600181019050611d84565b5085935050505092915050565b60006020820190508181036000830152611dd88184611d60565b905092915050565b6000604051905090565b600080fd5b600080fd5b611dfd81611d22565b8114611e0857600080fd5b50565b600081359050611e1a81611df4565b92915050565b600073ffffffffffffffffffffffffffffffffffffffff82169050919050565b6000611e4b82611e20565b9050919050565b611e5b81611e40565b8114611e6657600080fd5b50565b600081359050611e7881611e52565b92915050565b60008060408385031215611e9557611e94611dea565b5b6000611ea385828601611e0b565b9250506020611eb485828601611e69565b9150509250929050565b611ec781611d22565b82525050565b6000602082019050611ee26000830184611ebe565b92915050565b600060208284031215611efe57611efd611dea565b5b6000611f0c84828501611e69565b91505092915050565b600060208284031215611f2b57611f2a611dea565b5b6000611f3984828501611e0b565b91505092915050565b611f4b81611e40565b82525050565b6000602082019050611f666000830184611f42565b92915050565b60008115159050919050565b611f8181611f6c565b82525050565b6000602082019050611f9c6000830184611f78565b92915050565b600081519050919050565b600082825260208201905092915050565b60005b83811015611fdc578082015181840152602081019050611fc1565b83811115611feb576000848401525b50505050565b6000601f19601f8301169050919050565b600061200d82611fa2565b6120178185611fad565b9350612027818560208601611fbe565b61203081611ff1565b840191505092915050565b61204481611e40565b82525050565b61205381611f6c565b82525050565b7f4e487b7100000000000000000000000000000000000000000000000000000000600052602160045260246000fd5b6004811061209957612098612059565b5b50565b60008190506120aa82612088565b919050565b60006120ba8261209c565b9050919050565b6120ca816120af565b82525050565b60006101208301600083015184820360008601526120ee8282612002565b915050602083015184820360208601526121088282612002565b915050604083015184820360408601526121228282612002565b91505060608301516121376060860182611d2c565b50608083015161214a608086018261203b565b5060a083015161215d60a0860182611d2c565b5060c083015161217060c086018261204a565b5060e083015161218360e086018261203b565b506101008301516121986101008601826120c1565b508091505092915050565b600060208201905081810360008301526121bd81846120d0565b905092915050565b600082825260208201905092915050565b60006121e182611fa2565b6121eb81856121c5565b93506121fb818560208601611fbe565b61220481611ff1565b840191505092915050565b612218816120af565b82525050565b600060e0820190508181036000830152612238818a6121d6565b9050818103602083015261224c81896121d6565b9050818103604083015261226081886121d6565b905061226f6060830187611ebe565b61227c6080830186611f78565b61228960a0830185611f42565b61229660c083018461220f565b98975050505050505050565b600080fd5b600080fd5b7f4e487b7100000000000000000000000000000000000000000000000000000000600052604160045260246000fd5b6122e482611ff1565b810181811067ffffffffffffffff82111715612303576123026122ac565b5b80604052505050565b6000612316611de0565b905061232282826122db565b919050565b600067ffffffffffffffff821115612342576123416122ac565b5b61234b82611ff1565b9050602081019050919050565b82818337600083830152505050565b600061237a61237584612327565b61230c565b905082815260208101848484011115612396576123956122a7565b5b6123a1848285612358565b509392505050565b600082601f8301126123be576123bd6122a2565b5b81356123ce848260208601612367565b91505092915050565b6123e081611f6c565b81146123eb57600080fd5b50565b6000813590506123fd816123d7565b92915050565b60008060008060008060c087890312156124205761241f611dea565b5b600087013567ffffffffffffffff81111561243e5761243d611def565b5b61244a89828a016123a9565b965050602087013567ffffffffffffffff81111561246b5761246a611def565b5b61247789828a016123a9565b955050604087013567ffffffffffffffff81111561249857612497611def565b5b6124a489828a016123a9565b94505060606124b589828a01611e0b565b93505060806124c689828a01611e0b565b92505060a06124d789828a016123ee565b9150509295509295509295565b600481106124f157600080fd5b50565b600081359050612503816124e4565b92915050565b600080604083850312156125205761251f611dea565b5b600061252e85828601611e0b565b925050602061253f858286016124f4565b9150509250929050565b7f4e487b7100000000000000000000000000000000000000000000000000000000600052603260045260246000fd5b7f4e487b7100000000000000000000000000000000000000000000000000000000600052601160045260246000fd5b60006125b282611d22565b91507fffffffffffffffffffffffffffffffffffffffffffffffffffffffffffffffff8214156125e5576125e4612578565b5b600182019050919050565b6000815190506125ff81611df4565b92915050565b60006020828403121561261b5761261a611dea565b5b6000612629848285016125f0565b91505092915050565b7f596f7520646f6e7420686176652066756e647320746f20776974686472617721600082015250565b60006126686020836121c5565b915061267382612632565b602082019050919050565b600060208201905081810360008301526126978161265b565b9050919050565b60006126a982611d22565b91506126b483611d22565b9250828210156126c7576126c6612578565b5b828203905092915050565b600081905092915050565b50565b60006126ed6000836126d2565b91506126f8826126dd565b600082019050919050565b600061270e826126e0565b9150819050919050565b7f6661696c656420746f2073656e64000000000000000000000000000000000000600082015250565b600061274e600e836121c5565b915061275982612718565b602082019050919050565b6000602082019050818103600083015261277d81612741565b9050919050565b7f4e487b7100000000000000000000000000000000000000000000000000000000600052602260045260246000fd5b600060028204905060018216806127cb57607f821691505b602082108114156127df576127de612784565b5b50919050565b7f54686973206c616e64206973206e6f7420617661696c61626c65000000000000600082015250565b600061281b601a836121c5565b9150612826826127e5565b602082019050919050565b6000602082019050818103600083015261284a8161280e565b9050919050565b7f596f752063616e74207265717565737420796f7572206f776e206c616e640000600082015250565b6000612887601e836121c5565b915061289282612851565b602082019050919050565b600060208201905081810360008301526128b68161287a565b9050919050565b7f546865204f776e6572206f6620746865206c616e64206861736e74206170707260008201527f6f766564207468652073616c6573000000000000000000000000000000000000602082015250565b6000612919602e836121c5565b9150612924826128bd565b604082019050919050565b600060208201905081810360008301526129488161290c565b9050919050565b7f5468652070726963652073686f756c64206265206d6f726520746861206f722060008201527f657175616c20746f207468652073656c6c696e67207072696365000000000000602082015250565b60006129ab603a836121c5565b91506129b68261294f565b604082019050919050565b600060208201905081810360008301526129da8161299e565b9050919050565b7f546865204f776e6572206f6620746865206c616e642063616e7420627579686960008201527f736f776e6c616e64000000000000000000000000000000000000000000000000602082015250565b6000612a3d6028836121c5565b9150612a48826129e1565b604082019050919050565b60006020820190508181036000830152612a6c81612a30565b9050919050565b6000606082019050612a886000830186611f42565b612a956020830185611f42565b612aa26040830184611ebe565b949350505050565b7f4f6e6c79206f776e6572206f662070726f70657274792063616e206d616b652060008201527f697420617661696c61626c650000000000000000000000000000000000000000602082015250565b6000612b06602c836121c5565b9150612b1182612aaa565b604082019050919050565b60006020820190508181036000830152612b3581612af9565b9050919050565b600060a082019050612b516000830188611f42565b8181036020830152612b6381876121d6565b90508181036040830152612b7781866121d6565b90508181036060830152612b8b81856121d6565b9050612b9a6080830184611ebe565b9695505050505050565b7f596f752063616e6e6f742070726f63657373207265717565737420636175736560008201527f20796f7520617265206e6f7420746865206f776e6572206f662074686520617360208201527f7365740000000000000000000000000000000000000000000000000000000000604082015250565b6000612c266043836121c5565b9150612c3182612ba4565b606082019050919050565b60006020820190508181036000830152612c5581612c19565b905091905056fea26469706673582212204eb8ecd09b5acd4a72dbcacf931971bba6d419c6f0400dac4c20abe44974a5ee64736f6c63430008090033",
  "linkReferences": {},
  "deployedLinkReferences": {}
}