{
  "_format": "hh-sol-artifact-1",
  "contractName": "Ticketing",
  "sourceName": "contracts/Ticketing.sol",
  "abi": [
    {
      "inputs": [
        {
          "internalType": "address",
          "name": "_account",
          "type": "address"
        }
      ],
      "stateMutability": "nonpayable",
      "type": "constructor"
    },
    {
      "anonymous": false,
      "inputs": [
        {
          "indexed": true,
          "internalType": "address",
          "name": "creator",
          "type": "address"
        },
        {
          "indexed": false,
          "internalType": "string",
          "name": "eventName",
          "type": "string"
        }
      ],
      "name": "event_created",
      "type": "event"
    },
    {
      "anonymous": false,
      "inputs": [
        {
          "indexed": true,
          "internalType": "address",
          "name": "creator",
          "type": "address"
        },
        {
          "indexed": false,
          "internalType": "string",
          "name": "eventName",
          "type": "string"
        }
      ],
      "name": "event_deleted",
      "type": "event"
    },
    {
      "anonymous": false,
      "inputs": [
        {
          "indexed": true,
          "internalType": "address",
          "name": "creator",
          "type": "address"
        },
        {
          "indexed": false,
          "internalType": "string",
          "name": "eventName",
          "type": "string"
        },
        {
          "indexed": false,
          "internalType": "uint256",
          "name": "timestamp",
          "type": "uint256"
        }
      ],
      "name": "fund_withdrawn",
      "type": "event"
    },
    {
      "anonymous": false,
      "inputs": [
        {
          "indexed": true,
          "internalType": "address",
          "name": "creator",
          "type": "address"
        },
        {
          "indexed": false,
          "internalType": "string",
          "name": "EventName",
          "type": "string"
        },
        {
          "indexed": false,
          "internalType": "uint256",
          "name": "timestamp",
          "type": "uint256"
        }
      ],
      "name": "ticketPriceChange",
      "type": "event"
    },
    {
      "anonymous": false,
      "inputs": [
        {
          "indexed": true,
          "internalType": "address",
          "name": "buyer",
          "type": "address"
        },
        {
          "indexed": false,
          "internalType": "string",
          "name": "eventName",
          "type": "string"
        }
      ],
      "name": "ticket_bought",
      "type": "event"
    },
    {
      "inputs": [
        {
          "internalType": "string",
          "name": "event_id",
          "type": "string"
        },
        {
          "internalType": "uint64[]",
          "name": "additional_tickets",
          "type": "uint64[]"
        }
      ],
      "name": "add_tickets",
      "outputs": [],
      "stateMutability": "nonpayable",
      "type": "function"
    },
    {
      "inputs": [
        {
          "internalType": "string",
          "name": "event_id",
          "type": "string"
        }
      ],
      "name": "availableTickets",
      "outputs": [
        {
          "internalType": "uint64[]",
          "name": "",
          "type": "uint64[]"
        }
      ],
      "stateMutability": "view",
      "type": "function"
    },
    {
      "inputs": [
        {
          "internalType": "string",
          "name": "event_id",
          "type": "string"
        },
        {
          "internalType": "uint64",
          "name": "ticket_type",
          "type": "uint64"
        },
        {
          "internalType": "uint64",
          "name": "requested_num_tickets",
          "type": "uint64"
        }
      ],
      "name": "buy_tickets",
      "outputs": [],
      "stateMutability": "payable",
      "type": "function"
    },
    {
      "inputs": [
        {
          "internalType": "string",
          "name": "_event_id",
          "type": "string"
        },
        {
          "internalType": "uint64[]",
          "name": "num_tickets",
          "type": "uint64[]"
        },
        {
          "internalType": "uint128[]",
          "name": "_ticket_prices",
          "type": "uint128[]"
        },
        {
          "internalType": "bool",
          "name": "_per_customer_limit",
          "type": "bool"
        },
        {
          "internalType": "uint64",
          "name": "_max_per_customer",
          "type": "uint64"
        },
        {
          "internalType": "uint256",
          "name": "_deadline",
          "type": "uint256"
        }
      ],
      "name": "createEvent",
      "outputs": [],
      "stateMutability": "nonpayable",
      "type": "function"
    },
    {
      "inputs": [
        {
          "internalType": "string",
          "name": "",
          "type": "string"
        }
      ],
      "name": "events",
      "outputs": [
        {
          "internalType": "address payable",
          "name": "owner",
          "type": "address"
        },
        {
          "internalType": "string",
          "name": "event_Id",
          "type": "string"
        },
        {
          "internalType": "uint256",
          "name": "deadline",
          "type": "uint256"
        },
        {
          "internalType": "uint256",
          "name": "funds",
          "type": "uint256"
        },
        {
          "internalType": "uint256",
          "name": "index",
          "type": "uint256"
        },
        {
          "internalType": "bool",
          "name": "sale_active",
          "type": "bool"
        },
        {
          "internalType": "bool",
          "name": "exists",
          "type": "bool"
        },
        {
          "internalType": "bool",
          "name": "per_customer_limit",
          "type": "bool"
        },
        {
          "internalType": "uint64",
          "name": "max_per_customer",
          "type": "uint64"
        }
      ],
      "stateMutability": "view",
      "type": "function"
    },
    {
      "inputs": [
        {
          "internalType": "string",
          "name": "event_id",
          "type": "string"
        }
      ],
      "name": "get_customers",
      "outputs": [
        {
          "internalType": "address[]",
          "name": "",
          "type": "address[]"
        }
      ],
      "stateMutability": "view",
      "type": "function"
    },
    {
      "inputs": [
        {
          "internalType": "string",
          "name": "event_id",
          "type": "string"
        }
      ],
      "name": "return_tickets",
      "outputs": [],
      "stateMutability": "nonpayable",
      "type": "function"
    },
    {
      "inputs": [
        {
          "internalType": "string",
          "name": "event_id",
          "type": "string"
        }
      ],
      "name": "viewTickedId",
      "outputs": [
        {
          "internalType": "bytes32",
          "name": "",
          "type": "bytes32"
        }
      ],
      "stateMutability": "view",
      "type": "function"
    },
    {
      "inputs": [
        {
          "internalType": "string",
          "name": "event_id",
          "type": "string"
        }
      ],
      "name": "view_funds",
      "outputs": [
        {
          "internalType": "uint256",
          "name": "current_funds",
          "type": "uint256"
        }
      ],
      "stateMutability": "view",
      "type": "function"
    },
    {
      "inputs": [
        {
          "internalType": "string",
          "name": "event_id",
          "type": "string"
        }
      ],
      "name": "withdraw_funds",
      "outputs": [],
      "stateMutability": "nonpayable",
      "type": "function"
    }
  ],
  "bytecode": "0x60806040523480156200001157600080fd5b5060405162004324380380620043248339818101604052810190620000379190620000e8565b806000806101000a81548173ffffffffffffffffffffffffffffffffffffffff021916908373ffffffffffffffffffffffffffffffffffffffff160217905550506200011a565b600080fd5b600073ffffffffffffffffffffffffffffffffffffffff82169050919050565b6000620000b08262000083565b9050919050565b620000c281620000a3565b8114620000ce57600080fd5b50565b600081519050620000e281620000b7565b92915050565b6000602082840312156200010157620001006200007e565b5b60006200011184828501620000d1565b91505092915050565b6141fa806200012a6000396000f3fe6080604052600436106100915760003560e01c8063926766fc11610059578063926766fc1461017e5780639673d6a3146101bb578063a0d596c014610200578063a78934a414610229578063bef42cb81461025257610091565b8063144f7bde1461009657806323f7bd77146100d357806352359ab5146100fc5780635512d7dd146101395780638928df8814610162575b600080fd5b3480156100a257600080fd5b506100bd60048036038101906100b89190612a2f565b61028f565b6040516100ca9190612b4a565b60405180910390f35b3480156100df57600080fd5b506100fa60048036038101906100f59190612d12565b61033c565b005b34801561010857600080fd5b50610123600480360381019061011e9190612e01565b610771565b6040516101309190612f3e565b60405180910390f35b34801561014557600080fd5b50610160600480360381019061015b9190612a2f565b610823565b005b61017c60048036038101906101779190612f60565b610e29565b005b34801561018a57600080fd5b506101a560048036038101906101a09190612e01565b611b34565b6040516101b29190612fde565b60405180910390f35b3480156101c757600080fd5b506101e260048036038101906101dd9190612a2f565b611d0b565b6040516101f7999897969594939291906130c0565b60405180910390f35b34801561020c57600080fd5b5061022760048036038101906102229190612a2f565b611e52565b005b34801561023557600080fd5b50610250600480360381019061024b9190613154565b612117565b005b34801561025e57600080fd5b5061027960048036038101906102749190612e01565b61251e565b60405161028691906131e9565b60405180910390f35b60606002826040516102a19190613240565b908152602001604051809103902060040180548060200260200160405190810160405280929190818152602001828054801561033057602002820191906000526020600020906000905b82829054906101000a900467ffffffffffffffff1667ffffffffffffffff16815260200190600801906020826007010492830192600103820291508084116102eb5790505b50505050509050919050565b6002898960405161034e92919061327c565b908152602001604051809103902060080160019054906101000a900460ff16156103ad576040517f08c379a00000000000000000000000000000000000000000000000000000000081526004016103a490613307565b60405180910390fd5b8484905087879050146103f5576040517f08c379a00000000000000000000000000000000000000000000000000000000081526004016103ec906133bf565b60405180910390fd5b6000878790501161043b576040517f08c379a000000000000000000000000000000000000000000000000000000000815260040161043290613451565b60405180910390fd5b606460ff16878790501115610485576040517f08c379a000000000000000000000000000000000000000000000000000000000815260040161047c906134e3565b60405180910390fd5b4281116104c7576040517f08c379a00000000000000000000000000000000000000000000000000000000081526004016104be9061354f565b60405180910390fd5b600160028a8a6040516104db92919061327c565b908152602001604051809103902060080160016101000a81548160ff021916908315150217905550888860028b8b60405161051792919061327c565b908152602001604051809103902060010191906105359291906125ca565b50868660028b8b60405161054a92919061327c565b90815260200160405180910390206004019190610568929190612650565b50848460028b8b60405161057d92919061327c565b9081526020016040518091039020600201919061059b929190612716565b508160028a8a6040516105af92919061327c565b908152602001604051809103902060080160036101000a81548167ffffffffffffffff021916908367ffffffffffffffff1602179055508260028a8a6040516105f992919061327c565b908152602001604051809103902060080160026101000a81548160ff0219169083151502179055503360028a8a60405161063492919061327c565b908152602001604051809103902060000160006101000a81548173ffffffffffffffffffffffffffffffffffffffff021916908373ffffffffffffffffffffffffffffffffffffffff1602179055508060028a8a60405161069692919061327c565b90815260200160405180910390206005018190555060038054905060028a8a6040516106c392919061327c565b90815260200160405180910390206007018190555060038989909180600181540180825580915050600190039060005260206000200160009091929091929091929091925091906107159291906125ca565b503373ffffffffffffffffffffffffffffffffffffffff167fb2e9851b3527256f8bfedacf65268434ed500df0baf519807424645da4462f528a8a60405161075e92919061359c565b60405180910390a2505050505050505050565b60606002838360405161078592919061327c565b9081526020016040518091039020600a0180548060200260200160405190810160405280929190818152602001828054801561081657602002820191906000526020600020905b8160009054906101000a900473ffffffffffffffffffffffffffffffffffffffff1673ffffffffffffffffffffffffffffffffffffffff16815260200190600101908083116107cc575b5050505050905092915050565b80426002826040516108359190613240565b90815260200160405180910390206005015411610887576040517f08c379a000000000000000000000000000000000000000000000000000000000815260040161087e9061360c565b60405180910390fd5b60006002836040516108999190613240565b908152602001604051809103902060090160003373ffffffffffffffffffffffffffffffffffffffff1673ffffffffffffffffffffffffffffffffffffffff16815260200190815260200160002060010160159054906101000a900467ffffffffffffffff1667ffffffffffffffff1611610949576040517f08c379a00000000000000000000000000000000000000000000000000000000081526004016109409061369e565b60405180910390fd5b600060028360405161095b9190613240565b908152602001604051809103902060090160003373ffffffffffffffffffffffffffffffffffffffff1673ffffffffffffffffffffffffffffffffffffffff16815260200190815260200160002060020160009054906101000a90046fffffffffffffffffffffffffffffffff166fffffffffffffffffffffffffffffffff16905060005b6002846040516109f09190613240565b9081526020016040518091039020600401805490508167ffffffffffffffff161015610d3e57600284604051610a269190613240565b90815260200160405180910390206004018167ffffffffffffffff1681548110610a5357610a526136be565b5b90600052602060002090600491828204019190066008029054906101000a900467ffffffffffffffff1667ffffffffffffffff16600285604051610a979190613240565b908152602001604051809103902060090160003373ffffffffffffffffffffffffffffffffffffffff1673ffffffffffffffffffffffffffffffffffffffff1681526020019081526020016000206003018267ffffffffffffffff1681548110610b0457610b036136be565b5b90600052602060002090600491828204019190066008029054906101000a900467ffffffffffffffff16600286604051610b3e9190613240565b90815260200160405180910390206004018367ffffffffffffffff1681548110610b6b57610b6a6136be565b5b90600052602060002090600491828204019190066008029054906101000a900467ffffffffffffffff16610b9f919061371c565b67ffffffffffffffff161015610bea576040517f08c379a0000000000000000000000000000000000000000000000000000000008152600401610be1906137f2565b60405180910390fd5b600284604051610bfa9190613240565b908152602001604051809103902060090160003373ffffffffffffffffffffffffffffffffffffffff1673ffffffffffffffffffffffffffffffffffffffff1681526020019081526020016000206003018167ffffffffffffffff1681548110610c6757610c666136be565b5b90600052602060002090600491828204019190066008029054906101000a900467ffffffffffffffff16600285604051610ca19190613240565b90815260200160405180910390206004018267ffffffffffffffff1681548110610cce57610ccd6136be565b5b90600052602060002090600491828204019190066008028282829054906101000a900467ffffffffffffffff16610d05919061371c565b92506101000a81548167ffffffffffffffff021916908367ffffffffffffffff1602179055508080610d3690613812565b9150506109e0565b5080600284604051610d509190613240565b90815260200160405180910390206006016000828254610d709190613843565b9250508190555060003373ffffffffffffffffffffffffffffffffffffffff1682604051610d9d906138a8565b60006040518083038185875af1925050503d8060008114610dda576040519150601f19603f3d011682016040523d82523d6000602084013e610ddf565b606091505b5050905080610e23576040517f08c379a0000000000000000000000000000000000000000000000000000000008152600401610e1a9061392f565b60405180910390fd5b50505050565b60008167ffffffffffffffff1611610e4057600080fd5b600283604051610e509190613240565b9081526020016040518091039020600401805490508267ffffffffffffffff1610610eb0576040517f08c379a0000000000000000000000000000000000000000000000000000000008152600401610ea79061399b565b60405180910390fd5b600283604051610ec09190613240565b90815260200160405180910390206004018267ffffffffffffffff1681548110610eed57610eec6136be565b5b90600052602060002090600491828204019190066008029054906101000a900467ffffffffffffffff1667ffffffffffffffff168167ffffffffffffffff161115610f6d576040517f08c379a0000000000000000000000000000000000000000000000000000000008152600401610f6490613a07565b60405180910390fd5b600283604051610f7d9190613240565b908152602001604051809103902060080160029054906101000a900460ff1615806110715750600283604051610fb39190613240565b908152602001604051809103902060080160039054906101000a900467ffffffffffffffff1667ffffffffffffffff1681600285604051610ff49190613240565b908152602001604051809103902060090160003373ffffffffffffffffffffffffffffffffffffffff1673ffffffffffffffffffffffffffffffffffffffff16815260200190815260200160002060010160159054906101000a900467ffffffffffffffff16611064919061371c565b67ffffffffffffffff1611155b6110b0576040517f08c379a00000000000000000000000000000000000000000000000000000000081526004016110a790613a99565b60405180910390fd5b60006002846040516110c29190613240565b90815260200160405180910390206002018367ffffffffffffffff16815481106110ef576110ee6136be565b5b90600052602060002090600291828204019190066010029054906101000a90046fffffffffffffffffffffffffffffffff168267ffffffffffffffff166111369190613ad5565b9050806fffffffffffffffffffffffffffffffff1634101561118d576040517f08c379a000000000000000000000000000000000000000000000000000000000815260040161118490613b6b565b60405180910390fd5b60028460405161119d9190613240565b908152602001604051809103902060090160003373ffffffffffffffffffffffffffffffffffffffff1673ffffffffffffffffffffffffffffffffffffffff16815260200190815260200160002060010160149054906101000a900460ff166115095760016002856040516112129190613240565b908152602001604051809103902060090160003373ffffffffffffffffffffffffffffffffffffffff1673ffffffffffffffffffffffffffffffffffffffff16815260200190815260200160002060010160146101000a81548160ff0219169083151502179055503360028560405161128b9190613240565b908152602001604051809103902060090160003373ffffffffffffffffffffffffffffffffffffffff1673ffffffffffffffffffffffffffffffffffffffff16815260200190815260200160002060010160006101000a81548173ffffffffffffffffffffffffffffffffffffffff021916908373ffffffffffffffffffffffffffffffffffffffff16021790555060028460405161132a9190613240565b9081526020016040518091039020600a018054905060028560405161134f9190613240565b908152602001604051809103902060090160003373ffffffffffffffffffffffffffffffffffffffff1673ffffffffffffffffffffffffffffffffffffffff168152602001908152602001600020600001819055506002846040516113b49190613240565b9081526020016040518091039020600a01339080600181540180825580915050600190039060005260206000200160009091909190916101000a81548173ffffffffffffffffffffffffffffffffffffffff021916908373ffffffffffffffffffffffffffffffffffffffff1602179055506002846040516114369190613240565b90815260200160405180910390206004018054905067ffffffffffffffff81111561146457611463612904565b5b6040519080825280602002602001820160405280156114925781602001602082028036833780820191505090505b506002856040516114a39190613240565b908152602001604051809103902060090160003373ffffffffffffffffffffffffffffffffffffffff1673ffffffffffffffffffffffffffffffffffffffff16815260200190815260200160002060030190805190602001906115079291906127fc565b505b8160028560405161151a9190613240565b908152602001604051809103902060090160003373ffffffffffffffffffffffffffffffffffffffff1673ffffffffffffffffffffffffffffffffffffffff16815260200190815260200160002060010160158282829054906101000a900467ffffffffffffffff1661158d919061371c565b92506101000a81548167ffffffffffffffff021916908367ffffffffffffffff160217905550816002856040516115c49190613240565b908152602001604051809103902060090160003373ffffffffffffffffffffffffffffffffffffffff1673ffffffffffffffffffffffffffffffffffffffff1681526020019081526020016000206003018467ffffffffffffffff1681548110611631576116306136be565b5b90600052602060002090600491828204019190066008028282829054906101000a900467ffffffffffffffff16611668919061371c565b92506101000a81548167ffffffffffffffff021916908367ffffffffffffffff1602179055508060028560405161169f9190613240565b908152602001604051809103902060090160003373ffffffffffffffffffffffffffffffffffffffff1673ffffffffffffffffffffffffffffffffffffffff16815260200190815260200160002060020160008282829054906101000a90046fffffffffffffffffffffffffffffffff1661171a9190613b8b565b92506101000a8154816fffffffffffffffffffffffffffffffff02191690836fffffffffffffffffffffffffffffffff160217905550816002856040516117619190613240565b90815260200160405180910390206004018467ffffffffffffffff168154811061178e5761178d6136be565b5b90600052602060002090600491828204019190066008028282829054906101000a900467ffffffffffffffff166117c59190613bd1565b92506101000a81548167ffffffffffffffff021916908367ffffffffffffffff160217905550806002856040516117fc9190613240565b908152602001604051809103902060090160003373ffffffffffffffffffffffffffffffffffffffff1673ffffffffffffffffffffffffffffffffffffffff16815260200190815260200160002060020160008282829054906101000a90046fffffffffffffffffffffffffffffffff166118779190613b8b565b92506101000a8154816fffffffffffffffffffffffffffffffff02191690836fffffffffffffffffffffffffffffffff160217905550806fffffffffffffffffffffffffffffffff166002856040516118d09190613240565b908152602001604051809103902060060160008282546118f09190613c05565b9250508190555060006119058585853361258c565b9050806002866040516119189190613240565b908152602001604051809103902060090160003373ffffffffffffffffffffffffffffffffffffffff1673ffffffffffffffffffffffffffffffffffffffff1681526020019081526020016000206004018190555060008054906101000a900473ffffffffffffffffffffffffffffffffffffffff1673ffffffffffffffffffffffffffffffffffffffff1663d204c45e33876040518363ffffffff1660e01b81526004016119c8929190613c6a565b600060405180830381600087803b1580156119e257600080fd5b505af11580156119f6573d6000803e3d6000fd5b50505050816fffffffffffffffffffffffffffffffff16341115611adf5760003373ffffffffffffffffffffffffffffffffffffffff16836fffffffffffffffffffffffffffffffff1634611a4b9190613843565b604051611a57906138a8565b60006040518083038185875af1925050503d8060008114611a94576040519150601f19603f3d011682016040523d82523d6000602084013e611a99565b606091505b5050905080611add576040517f08c379a0000000000000000000000000000000000000000000000000000000008152600401611ad490613d0c565b60405180910390fd5b505b3373ffffffffffffffffffffffffffffffffffffffff167f6d0598831047f50508c3bf6a106db26bd6f8782df0ab21f8df187b556ec4cb1b86604051611b259190613d2c565b60405180910390a25050505050565b600082828080601f016020809104026020016040519081016040528093929190818152602001838380828437600081840152601f19601f82011690508083019250505050505050600281604051611b8b9190613240565b908152602001604051809103902060080160019054906101000a900460ff16611be9576040517f08c379a0000000000000000000000000000000000000000000000000000000008152600401611be090613d9a565b60405180910390fd5b83838080601f016020809104026020016040519081016040528093929190818152602001838380828437600081840152601f19601f820116905080830192505050505050503373ffffffffffffffffffffffffffffffffffffffff16600282604051611c559190613240565b908152602001604051809103902060000160009054906101000a900473ffffffffffffffffffffffffffffffffffffffff1673ffffffffffffffffffffffffffffffffffffffff1614611cdd576040517f08c379a0000000000000000000000000000000000000000000000000000000008152600401611cd490613e2c565b60405180910390fd5b60028585604051611cef92919061327c565b9081526020016040518091039020600601549250505092915050565b6002818051602081018201805184825260208301602085012081835280955050505050506000915090508060000160009054906101000a900473ffffffffffffffffffffffffffffffffffffffff1690806001018054611d6a90613e7b565b80601f0160208091040260200160405190810160405280929190818152602001828054611d9690613e7b565b8015611de35780601f10611db857610100808354040283529160200191611de3565b820191906000526020600020905b815481529060010190602001808311611dc657829003601f168201915b5050505050908060050154908060060154908060070154908060080160009054906101000a900460ff16908060080160019054906101000a900460ff16908060080160029054906101000a900460ff16908060080160039054906101000a900467ffffffffffffffff16905089565b80600281604051611e639190613240565b908152602001604051809103902060080160019054906101000a900460ff16611ec1576040517f08c379a0000000000000000000000000000000000000000000000000000000008152600401611eb890613d9a565b60405180910390fd5b813373ffffffffffffffffffffffffffffffffffffffff16600282604051611ee99190613240565b908152602001604051809103902060000160009054906101000a900473ffffffffffffffffffffffffffffffffffffffff1673ffffffffffffffffffffffffffffffffffffffff1614611f71576040517f08c379a0000000000000000000000000000000000000000000000000000000008152600401611f6890613e2c565b60405180910390fd5b8242600282604051611f839190613240565b90815260200160405180910390206005015410611fd5576040517f08c379a0000000000000000000000000000000000000000000000000000000008152600401611fcc90613f1f565b60405180910390fd5b6000600285604051611fe79190613240565b9081526020016040518091039020600601549050600060028660405161200d9190613240565b90815260200160405180910390206006018190555060006002866040516120349190613240565b908152602001604051809103902060000160009054906101000a900473ffffffffffffffffffffffffffffffffffffffff1673ffffffffffffffffffffffffffffffffffffffff1682604051612089906138a8565b60006040518083038185875af1925050503d80600081146120c6576040519150601f19603f3d011682016040523d82523d6000602084013e6120cb565b606091505b505090508061210f576040517f08c379a000000000000000000000000000000000000000000000000000000000815260040161210690613f8b565b60405180910390fd5b505050505050565b826002816040516121289190613240565b908152602001604051809103902060080160019054906101000a900460ff16612186576040517f08c379a000000000000000000000000000000000000000000000000000000000815260040161217d90613d9a565b60405180910390fd5b833373ffffffffffffffffffffffffffffffffffffffff166002826040516121ae9190613240565b908152602001604051809103902060000160009054906101000a900473ffffffffffffffffffffffffffffffffffffffff1673ffffffffffffffffffffffffffffffffffffffff1614612236576040517f08c379a000000000000000000000000000000000000000000000000000000000815260040161222d90613e2c565b60405180910390fd5b6002856040516122469190613240565b908152602001604051809103902060040180549050848490501461229f576040517f08c379a000000000000000000000000000000000000000000000000000000000815260040161229690614043565b60405180910390fd5b60005b6002866040516122b29190613240565b9081526020016040518091039020600401805490508167ffffffffffffffff161015612516576002866040516122e89190613240565b90815260200160405180910390206004018167ffffffffffffffff1681548110612315576123146136be565b5b90600052602060002090600491828204019190066008029054906101000a900467ffffffffffffffff1667ffffffffffffffff1685858367ffffffffffffffff16818110612366576123656136be565b5b905060200201602081019061237b9190614063565b60028860405161238b9190613240565b90815260200160405180910390206004018367ffffffffffffffff16815481106123b8576123b76136be565b5b90600052602060002090600491828204019190066008029054906101000a900467ffffffffffffffff166123ec919061371c565b67ffffffffffffffff161015612437576040517f08c379a000000000000000000000000000000000000000000000000000000000815260040161242e906140dc565b60405180910390fd5b84848267ffffffffffffffff16818110612454576124536136be565b5b90506020020160208101906124699190614063565b6002876040516124799190613240565b90815260200160405180910390206004018267ffffffffffffffff16815481106124a6576124a56136be565b5b90600052602060002090600491828204019190066008028282829054906101000a900467ffffffffffffffff166124dd919061371c565b92506101000a81548167ffffffffffffffff021916908367ffffffffffffffff160217905550808061250e90613812565b9150506122a2565b505050505050565b60006002838360405161253292919061327c565b908152602001604051809103902060090160003373ffffffffffffffffffffffffffffffffffffffff1673ffffffffffffffffffffffffffffffffffffffff16815260200190815260200160002060040154905092915050565b600080858585856040516020016125a6949392919061417a565b60405160208183030381529060405280519060200120905080915050949350505050565b8280546125d690613e7b565b90600052602060002090601f0160209004810192826125f8576000855561263f565b82601f1061261157803560ff191683800117855561263f565b8280016001018555821561263f579182015b8281111561263e578235825591602001919060010190612623565b5b50905061264c91906128b8565b5090565b828054828255906000526020600020906003016004900481019282156127055791602002820160005b838211156126cf57833567ffffffffffffffff1683826101000a81548167ffffffffffffffff021916908367ffffffffffffffff1602179055509260200192600801602081600701049283019260010302612679565b80156127035782816101000a81549067ffffffffffffffff02191690556008016020816007010492830192600103026126cf565b505b50905061271291906128b8565b5090565b828054828255906000526020600020906001016002900481019282156127eb5791602002820160005b838211156127ad5783356fffffffffffffffffffffffffffffffff1683826101000a8154816fffffffffffffffffffffffffffffffff02191690836fffffffffffffffffffffffffffffffff1602179055509260200192601001602081600f0104928301926001030261273f565b80156127e95782816101000a8154906fffffffffffffffffffffffffffffffff0219169055601001602081600f010492830192600103026127ad565b505b5090506127f891906128b8565b5090565b828054828255906000526020600020906003016004900481019282156128a75791602002820160005b8382111561287157835183826101000a81548167ffffffffffffffff021916908367ffffffffffffffff1602179055509260200192600801602081600701049283019260010302612825565b80156128a55782816101000a81549067ffffffffffffffff0219169055600801602081600701049283019260010302612871565b505b5090506128b491906128b8565b5090565b5b808211156128d15760008160009055506001016128b9565b5090565b6000604051905090565b600080fd5b600080fd5b600080fd5b600080fd5b6000601f19601f8301169050919050565b7f4e487b7100000000000000000000000000000000000000000000000000000000600052604160045260246000fd5b61293c826128f3565b810181811067ffffffffffffffff8211171561295b5761295a612904565b5b80604052505050565b600061296e6128d5565b905061297a8282612933565b919050565b600067ffffffffffffffff82111561299a57612999612904565b5b6129a3826128f3565b9050602081019050919050565b82818337600083830152505050565b60006129d26129cd8461297f565b612964565b9050828152602081018484840111156129ee576129ed6128ee565b5b6129f98482856129b0565b509392505050565b600082601f830112612a1657612a156128e9565b5b8135612a268482602086016129bf565b91505092915050565b600060208284031215612a4557612a446128df565b5b600082013567ffffffffffffffff811115612a6357612a626128e4565b5b612a6f84828501612a01565b91505092915050565b600081519050919050565b600082825260208201905092915050565b6000819050602082019050919050565b600067ffffffffffffffff82169050919050565b612ac181612aa4565b82525050565b6000612ad38383612ab8565b60208301905092915050565b6000602082019050919050565b6000612af782612a78565b612b018185612a83565b9350612b0c83612a94565b8060005b83811015612b3d578151612b248882612ac7565b9750612b2f83612adf565b925050600181019050612b10565b5085935050505092915050565b60006020820190508181036000830152612b648184612aec565b905092915050565b600080fd5b600080fd5b60008083601f840112612b8c57612b8b6128e9565b5b8235905067ffffffffffffffff811115612ba957612ba8612b6c565b5b602083019150836001820283011115612bc557612bc4612b71565b5b9250929050565b60008083601f840112612be257612be16128e9565b5b8235905067ffffffffffffffff811115612bff57612bfe612b6c565b5b602083019150836020820283011115612c1b57612c1a612b71565b5b9250929050565b60008083601f840112612c3857612c376128e9565b5b8235905067ffffffffffffffff811115612c5557612c54612b6c565b5b602083019150836020820283011115612c7157612c70612b71565b5b9250929050565b60008115159050919050565b612c8d81612c78565b8114612c9857600080fd5b50565b600081359050612caa81612c84565b92915050565b612cb981612aa4565b8114612cc457600080fd5b50565b600081359050612cd681612cb0565b92915050565b6000819050919050565b612cef81612cdc565b8114612cfa57600080fd5b50565b600081359050612d0c81612ce6565b92915050565b600080600080600080600080600060c08a8c031215612d3457612d336128df565b5b60008a013567ffffffffffffffff811115612d5257612d516128e4565b5b612d5e8c828d01612b76565b995099505060208a013567ffffffffffffffff811115612d8157612d806128e4565b5b612d8d8c828d01612bcc565b975097505060408a013567ffffffffffffffff811115612db057612daf6128e4565b5b612dbc8c828d01612c22565b95509550506060612dcf8c828d01612c9b565b9350506080612de08c828d01612cc7565b92505060a0612df18c828d01612cfd565b9150509295985092959850929598565b60008060208385031215612e1857612e176128df565b5b600083013567ffffffffffffffff811115612e3657612e356128e4565b5b612e4285828601612b76565b92509250509250929050565b600081519050919050565b600082825260208201905092915050565b6000819050602082019050919050565b600073ffffffffffffffffffffffffffffffffffffffff82169050919050565b6000612ea582612e7a565b9050919050565b612eb581612e9a565b82525050565b6000612ec78383612eac565b60208301905092915050565b6000602082019050919050565b6000612eeb82612e4e565b612ef58185612e59565b9350612f0083612e6a565b8060005b83811015612f31578151612f188882612ebb565b9750612f2383612ed3565b925050600181019050612f04565b5085935050505092915050565b60006020820190508181036000830152612f588184612ee0565b905092915050565b600080600060608486031215612f7957612f786128df565b5b600084013567ffffffffffffffff811115612f9757612f966128e4565b5b612fa386828701612a01565b9350506020612fb486828701612cc7565b9250506040612fc586828701612cc7565b9150509250925092565b612fd881612cdc565b82525050565b6000602082019050612ff36000830184612fcf565b92915050565b600061300482612e7a565b9050919050565b61301481612ff9565b82525050565b600081519050919050565b600082825260208201905092915050565b60005b83811015613054578082015181840152602081019050613039565b83811115613063576000848401525b50505050565b60006130748261301a565b61307e8185613025565b935061308e818560208601613036565b613097816128f3565b840191505092915050565b6130ab81612c78565b82525050565b6130ba81612aa4565b82525050565b6000610120820190506130d6600083018c61300b565b81810360208301526130e8818b613069565b90506130f7604083018a612fcf565b6131046060830189612fcf565b6131116080830188612fcf565b61311e60a08301876130a2565b61312b60c08301866130a2565b61313860e08301856130a2565b6131466101008301846130b1565b9a9950505050505050505050565b60008060006040848603121561316d5761316c6128df565b5b600084013567ffffffffffffffff81111561318b5761318a6128e4565b5b61319786828701612a01565b935050602084013567ffffffffffffffff8111156131b8576131b76128e4565b5b6131c486828701612bcc565b92509250509250925092565b6000819050919050565b6131e3816131d0565b82525050565b60006020820190506131fe60008301846131da565b92915050565b600081905092915050565b600061321a8261301a565b6132248185613204565b9350613234818560208601613036565b80840191505092915050565b600061324c828461320f565b915081905092915050565b60006132638385613204565b93506132708385846129b0565b82840190509392505050565b6000613289828486613257565b91508190509392505050565b7f476976656e206576656e7420494420697320616c726561647920696e2075736560008201527f2e00000000000000000000000000000000000000000000000000000000000000602082015250565b60006132f1602183613025565b91506132fc82613295565b604082019050919050565b60006020820190508181036000830152613320816132e4565b9050919050565b7f446966666572656e74206e756d626572206f66207469636b657420747970657360008201527f20676976656e20627920707269636520616e64206e756d62657220617661696c60208201527f61626c65206172726179732e0000000000000000000000000000000000000000604082015250565b60006133a9604c83613025565b91506133b482613327565b606082019050919050565b600060208201905081810360008301526133d88161339c565b9050919050565b7f43616e6e6f7420637265617465206576656e742077697468207a65726f20746960008201527f636b65742074797065732e000000000000000000000000000000000000000000602082015250565b600061343b602b83613025565b9150613446826133df565b604082019050919050565b6000602082019050818103600083015261346a8161342e565b9050919050565b7f4d6178696d756d206e756d626572206f66207469636b6574207479706573206560008201527f786365656465642e000000000000000000000000000000000000000000000000602082015250565b60006134cd602883613025565b91506134d882613471565b604082019050919050565b600060208201905081810360008301526134fc816134c0565b9050919050565b7f446561646c696e652063616e6e6f7420626520696e2074686520706173740000600082015250565b6000613539601e83613025565b915061354482613503565b602082019050919050565b600060208201905081810360008301526135688161352c565b9050919050565b600061357b8385613025565b93506135888385846129b0565b613591836128f3565b840190509392505050565b600060208201905081810360008301526135b781848661356f565b90509392505050565b7f4576656e7420646561646c696e65206861732070617373656400000000000000600082015250565b60006135f6601983613025565b9150613601826135c0565b602082019050919050565b60006020820190508181036000830152613625816135e9565b9050919050565b7f5573657220646f6573206e6f74206f776e20616e79207469636b65747320746f60008201527f2074686973206576656e742e0000000000000000000000000000000000000000602082015250565b6000613688602c83613025565b91506136938261362c565b604082019050919050565b600060208201905081810360008301526136b78161367b565b9050919050565b7f4e487b7100000000000000000000000000000000000000000000000000000000600052603260045260246000fd5b7f4e487b7100000000000000000000000000000000000000000000000000000000600052601160045260246000fd5b600061372782612aa4565b915061373283612aa4565b92508267ffffffffffffffff0382111561374f5761374e6136ed565b5b828201905092915050565b7f4661696c656420626563617573652072657475726e6564207469636b6574732060008201527f776f756c6420696e637265617365207469636b657420706f6f6c20706173742060208201527f73746f72616765206c696d69742e000000000000000000000000000000000000604082015250565b60006137dc604e83613025565b91506137e78261375a565b606082019050919050565b6000602082019050818103600083015261380b816137cf565b9050919050565b600061381d82612aa4565b915067ffffffffffffffff821415613838576138376136ed565b5b600182019050919050565b600061384e82612cdc565b915061385983612cdc565b92508282101561386c5761386b6136ed565b5b828203905092915050565b600081905092915050565b50565b6000613892600083613877565b915061389d82613882565b600082019050919050565b60006138b382613885565b9150819050919050565b7f52657475726e207472616e7366657220746f20637573746f6d6572206661696c60008201527f65642e0000000000000000000000000000000000000000000000000000000000602082015250565b6000613919602383613025565b9150613924826138bd565b604082019050919050565b600060208201905081810360008301526139488161390c565b9050919050565b7f5469636b6574207479706520646f6573206e6f742065786973742e0000000000600082015250565b6000613985601b83613025565b91506139908261394f565b602082019050919050565b600060208201905081810360008301526139b481613978565b9050919050565b7f4e6f7420656e6f756768207469636b65747320617661696c61626c652e000000600082015250565b60006139f1601d83613025565b91506139fc826139bb565b602082019050919050565b60006020820190508181036000830152613a20816139e4565b9050919050565b7f507572636861736520737572706173736573206d61782070657220637573746f60008201527f6d65722e00000000000000000000000000000000000000000000000000000000602082015250565b6000613a83602483613025565b9150613a8e82613a27565b604082019050919050565b60006020820190508181036000830152613ab281613a76565b9050919050565b60006fffffffffffffffffffffffffffffffff82169050919050565b6000613ae082613ab9565b9150613aeb83613ab9565b9250816fffffffffffffffffffffffffffffffff0483118215151615613b1457613b136136ed565b5b828202905092915050565b7f4e6f7420656e6f756768206574686572207761732073656e742e000000000000600082015250565b6000613b55601a83613025565b9150613b6082613b1f565b602082019050919050565b60006020820190508181036000830152613b8481613b48565b9050919050565b6000613b9682613ab9565b9150613ba183613ab9565b9250826fffffffffffffffffffffffffffffffff03821115613bc657613bc56136ed565b5b828201905092915050565b6000613bdc82612aa4565b9150613be783612aa4565b925082821015613bfa57613bf96136ed565b5b828203905092915050565b6000613c1082612cdc565b9150613c1b83612cdc565b9250827fffffffffffffffffffffffffffffffffffffffffffffffffffffffffffffffff03821115613c5057613c4f6136ed565b5b828201905092915050565b613c6481612e9a565b82525050565b6000604082019050613c7f6000830185613c5b565b8181036020830152613c918184613069565b90509392505050565b7f52657475726e206f66206578636573732066756e647320746f2073656e64657260008201527f206661696c65642e000000000000000000000000000000000000000000000000602082015250565b6000613cf6602883613025565b9150613d0182613c9a565b604082019050919050565b60006020820190508181036000830152613d2581613ce9565b9050919050565b60006020820190508181036000830152613d468184613069565b905092915050565b7f4576656e74207769746820676976656e204944206e6f7420666f756e642e0000600082015250565b6000613d84601e83613025565b9150613d8f82613d4e565b602082019050919050565b60006020820190508181036000830152613db381613d77565b9050919050565b7f53656e646572206973206e6f7420746865206f776e6572206f6620746869732060008201527f6576656e74000000000000000000000000000000000000000000000000000000602082015250565b6000613e16602583613025565b9150613e2182613dba565b604082019050919050565b60006020820190508181036000830152613e4581613e09565b9050919050565b7f4e487b7100000000000000000000000000000000000000000000000000000000600052602260045260246000fd5b60006002820490506001821680613e9357607f821691505b60208210811415613ea757613ea6613e4c565b5b50919050565b7f4576656e7420646561646c696e6520686173206e6f742079657420706173736560008201527f6400000000000000000000000000000000000000000000000000000000000000602082015250565b6000613f09602183613025565b9150613f1482613ead565b604082019050919050565b60006020820190508181036000830152613f3881613efc565b9050919050565b7f5769746864726177616c207472616e73666572206661696c65642e0000000000600082015250565b6000613f75601b83613025565b9150613f8082613f3f565b602082019050919050565b60006020820190508181036000830152613fa481613f68565b9050919050565b7f4c697374206f66206e756d626572206f66207469636b65747320746f2061646460008201527f206d757374206265206f662073616d65206c656e67746820617320657869737460208201527f696e67206c697374206f66207469636b6574732e000000000000000000000000604082015250565b600061402d605483613025565b915061403882613fab565b606082019050919050565b6000602082019050818103600083015261405c81614020565b9050919050565b600060208284031215614079576140786128df565b5b600061408784828501612cc7565b91505092915050565b7f43616e6e6f742065786365656420325e36342d31207469636b65747300000000600082015250565b60006140c6601c83613025565b91506140d182614090565b602082019050919050565b600060208201905081810360008301526140f5816140b9565b9050919050565b60008160c01b9050919050565b6000614114826140fc565b9050919050565b61412c61412782612aa4565b614109565b82525050565b60008160601b9050919050565b600061414a82614132565b9050919050565b600061415c8261413f565b9050919050565b61417461416f82612e9a565b614151565b82525050565b6000614186828761320f565b9150614192828661411b565b6008820191506141a2828561411b565b6008820191506141b28284614163565b6014820191508190509594505050505056fea2646970667358221220b1060d35022d13048c06107e6b68cd3b567d94bbe22476fb6b57925e7fd7586864736f6c63430008090033",
  "linkReferences": {},
  "deployedLinkReferences": {}
}